{
  "contractName": "UserContract",
  "abi": [
    {
      "anonymous": false,
      "inputs": [
        {
          "indexed": false,
          "internalType": "uint256",
          "name": "id",
          "type": "uint256"
        },
        {
          "indexed": false,
          "internalType": "string",
          "name": "name",
          "type": "string"
        },
        {
          "indexed": false,
          "internalType": "string",
          "name": "Password",
          "type": "string"
        },
        {
          "indexed": false,
          "internalType": "address",
          "name": "AccountNo",
          "type": "address"
        }
      ],
      "name": "UserRegister",
      "type": "event"
    },
    {
      "constant": true,
      "inputs": [
        {
          "internalType": "string",
          "name": "",
          "type": "string"
        }
      ],
      "name": "existEmail",
      "outputs": [
        {
          "internalType": "bool",
          "name": "",
          "type": "bool"
        }
      ],
      "payable": false,
      "stateMutability": "view",
      "type": "function"
    },
    {
      "constant": true,
      "inputs": [
        {
          "internalType": "address",
          "name": "",
          "type": "address"
        }
      ],
      "name": "existUser",
      "outputs": [
        {
          "internalType": "bool",
          "name": "",
          "type": "bool"
        }
      ],
      "payable": false,
      "stateMutability": "view",
      "type": "function"
    },
    {
      "constant": true,
      "inputs": [
        {
          "internalType": "uint256",
          "name": "",
          "type": "uint256"
        }
      ],
      "name": "users",
      "outputs": [
        {
          "internalType": "string",
          "name": "name",
          "type": "string"
        },
        {
          "internalType": "string",
          "name": "email",
          "type": "string"
        },
        {
          "internalType": "string",
          "name": "password",
          "type": "string"
        },
        {
          "internalType": "address",
          "name": "AccountNo",
          "type": "address"
        }
      ],
      "payable": false,
      "stateMutability": "view",
      "type": "function"
    },
    {
      "constant": false,
      "inputs": [
        {
          "internalType": "string",
          "name": "_name",
          "type": "string"
        },
        {
          "internalType": "string",
          "name": "_email",
          "type": "string"
        },
        {
          "internalType": "string",
          "name": "_password",
          "type": "string"
        }
      ],
      "name": "registerUser",
      "outputs": [],
      "payable": false,
      "stateMutability": "nonpayable",
      "type": "function"
    },
    {
      "constant": true,
      "inputs": [
        {
          "internalType": "string",
          "name": "_email",
          "type": "string"
        },
        {
          "internalType": "string",
          "name": "_password",
          "type": "string"
        }
      ],
      "name": "checkUser",
      "outputs": [
        {
          "internalType": "uint256",
          "name": "",
          "type": "uint256"
        }
      ],
      "payable": false,
      "stateMutability": "view",
      "type": "function"
    }
  ],
  "bytecode": "0x608060405234801561001057600080fd5b50611061806100206000396000f3fe608060405234801561001057600080fd5b50600436106100575760003560e01c8063365b98b21461005c578063ac2a70091461020e578063b51c0b65146102e1578063d637dcfa14610447578063e42954d914610630575b600080fd5b6100886004803603602081101561007257600080fd5b810190808035906020019092919050505061068c565b604051808060200180602001806020018573ffffffffffffffffffffffffffffffffffffffff1673ffffffffffffffffffffffffffffffffffffffff168152602001848103845288818151815260200191508051906020019080838360005b838110156101025780820151818401526020810190506100e7565b50505050905090810190601f16801561012f5780820380516001836020036101000a031916815260200191505b50848103835287818151815260200191508051906020019080838360005b8381101561016857808201518184015260208101905061014d565b50505050905090810190601f1680156101955780820380516001836020036101000a031916815260200191505b50848103825286818151815260200191508051906020019080838360005b838110156101ce5780820151818401526020810190506101b3565b50505050905090810190601f1680156101fb5780820380516001836020036101000a031916815260200191505b5097505050505050505060405180910390f35b6102c76004803603602081101561022457600080fd5b810190808035906020019064010000000081111561024157600080fd5b82018360208201111561025357600080fd5b8035906020019184600183028401116401000000008311171561027557600080fd5b91908080601f016020809104026020016040519081016040528093929190818152602001838380828437600081840152601f19601f8201169050808301925050505050505091929192905050506108b1565b604051808215151515815260200191505060405180910390f35b610431600480360360408110156102f757600080fd5b810190808035906020019064010000000081111561031457600080fd5b82018360208201111561032657600080fd5b8035906020019184600183028401116401000000008311171561034857600080fd5b91908080601f016020809104026020016040519081016040528093929190818152602001838380828437600081840152601f19601f820116905080830192505050505050509192919290803590602001906401000000008111156103ab57600080fd5b8201836020820111156103bd57600080fd5b803590602001918460018302840111640100000000831117156103df57600080fd5b91908080601f016020809104026020016040519081016040528093929190818152602001838380828437600081840152601f19601f8201169050808301925050505050505091929192905050506108e7565b6040518082815260200191505060405180910390f35b61062e6004803603606081101561045d57600080fd5b810190808035906020019064010000000081111561047a57600080fd5b82018360208201111561048c57600080fd5b803590602001918460018302840111640100000000831117156104ae57600080fd5b91908080601f016020809104026020016040519081016040528093929190818152602001838380828437600081840152601f19601f8201169050808301925050505050505091929192908035906020019064010000000081111561051157600080fd5b82018360208201111561052357600080fd5b8035906020019184600183028401116401000000008311171561054557600080fd5b91908080601f016020809104026020016040519081016040528093929190818152602001838380828437600081840152601f19601f820116905080830192505050505050509192919290803590602001906401000000008111156105a857600080fd5b8201836020820111156105ba57600080fd5b803590602001918460018302840111640100000000831117156105dc57600080fd5b91908080601f016020809104026020016040519081016040528093929190818152602001838380828437600081840152601f19601f820116905080830192505050505050509192919290505050610b49565b005b6106726004803603602081101561064657600080fd5b81019080803573ffffffffffffffffffffffffffffffffffffffff169060200190929190505050610b60565b604051808215151515815260200191505060405180910390f35b6000818154811061069957fe5b9060005260206000209060040201600091509050806000018054600181600116156101000203166002900480601f0160208091040260200160405190810160405280929190818152602001828054600181600116156101000203166002900480156107455780601f1061071a57610100808354040283529160200191610745565b820191906000526020600020905b81548152906001019060200180831161072857829003601f168201915b505050505090806001018054600181600116156101000203166002900480601f0160208091040260200160405190810160405280929190818152602001828054600181600116156101000203166002900480156107e35780601f106107b8576101008083540402835291602001916107e3565b820191906000526020600020905b8154815290600101906020018083116107c657829003601f168201915b505050505090806002018054600181600116156101000203166002900480601f0160208091040260200160405190810160405280929190818152602001828054600181600116156101000203166002900480156108815780601f1061085657610100808354040283529160200191610881565b820191906000526020600020905b81548152906001019060200180831161086457829003601f168201915b5050505050908060030160009054906101000a900473ffffffffffffffffffffffffffffffffffffffff16905084565b6002818051602081018201805184825260208301602085012081835280955050505050506000915054906101000a900460ff1681565b600080600090505b600080549050811015610b3d57836040516020018082805190602001908083835b602083106109335780518252602082019150602081019050602083039250610910565b6001836020036101000a0380198251168184511680821785525050505050509050019150506040516020818303038152906040528051906020012060001c6000828154811061097e57fe5b906000526020600020906004020160010160405160200180828054600181600116156101000203166002900480156109ed5780601f106109cb5761010080835404028352918201916109ed565b820191906000526020600020905b8154815290600101906020018083116109d9575b50509150506040516020818303038152906040528051906020012060001c1415610b3057826040516020018082805190602001908083835b60208310610a485780518252602082019150602081019050602083039250610a25565b6001836020036101000a0380198251168184511680821785525050505050509050019150506040516020818303038152906040528051906020012060001c60008281548110610a9357fe5b90600052602060002090600402016002016040516020018082805460018160011615610100020316600290048015610b025780601f10610ae0576101008083540402835291820191610b02565b820191906000526020600020905b815481529060010190602001808311610aee575b50509150506040516020818303038152906040528051906020012060001c1415610b2f5780915050610b43565b5b80806001019150506108ef565b50607b90505b92915050565b6000339050610b5a84848484610b80565b50505050565b60016020528060005260406000206000915054906101000a900460ff1681565b600160008273ffffffffffffffffffffffffffffffffffffffff1673ffffffffffffffffffffffffffffffffffffffff16815260200190815260200160002060009054906101000a900460ff16158015610c4e57506002836040518082805190602001908083835b60208310610c0b5780518252602082019150602081019050602083039250610be8565b6001836020036101000a038019825116818451168082178552505050505050905001915050908152602001604051809103902060009054906101000a900460ff16155b610c5757600080fd5b60018060008373ffffffffffffffffffffffffffffffffffffffff1673ffffffffffffffffffffffffffffffffffffffff16815260200190815260200160002060006101000a81548160ff02191690831515021790555060016002846040518082805190602001908083835b60208310610ce65780518252602082019150602081019050602083039250610cc3565b6001836020036101000a038019825116818451168082178552505050505050905001915050908152602001604051809103902060006101000a81548160ff02191690831515021790555060006001600060405180608001604052808881526020018781526020018681526020018573ffffffffffffffffffffffffffffffffffffffff16815250908060018154018082558091505090600182039060005260206000209060040201600090919290919091506000820151816000019080519060200190610db4929190610f87565b506020820151816001019080519060200190610dd1929190610f87565b506040820151816002019080519060200190610dee929190610f87565b5060608201518160030160006101000a81548173ffffffffffffffffffffffffffffffffffffffff021916908373ffffffffffffffffffffffffffffffffffffffff16021790555050500390507f3b8ca8f994db6859c049942874a6cfa46ae5b6ec68dc41a245a44b75eca41194818685856040518085815260200180602001806020018473ffffffffffffffffffffffffffffffffffffffff1673ffffffffffffffffffffffffffffffffffffffff168152602001838103835286818151815260200191508051906020019080838360005b83811015610edc578082015181840152602081019050610ec1565b50505050905090810190601f168015610f095780820380516001836020036101000a031916815260200191505b50838103825285818151815260200191508051906020019080838360005b83811015610f42578082015181840152602081019050610f27565b50505050905090810190601f168015610f6f5780820380516001836020036101000a031916815260200191505b50965050505050505060405180910390a15050505050565b828054600181600116156101000203166002900490600052602060002090601f016020900481019282601f10610fc857805160ff1916838001178555610ff6565b82800160010185558215610ff6579182015b82811115610ff5578251825591602001919060010190610fda565b5b5090506110039190611007565b5090565b61102991905b8082111561102557600081600090555060010161100d565b5090565b9056fea265627a7a72315820f99832047627666f83f3a3677524aea7bfd079ef41867d6e26ba7ea8e0b43e0464736f6c63430005100032",
  "source": "pragma solidity >=0.5.0 <0.6.0;\r\n\r\n\r\ncontract UserContract {\r\n    \r\n    struct User {\r\n        string name;\r\n        string email;\r\n        string password;\r\n        address AccountNo;    \r\n    }\r\n    User[] public users;\r\n\r\n    mapping (address => bool) public existUser;\r\n    mapping (string => bool) public existEmail;\r\n\r\n    event UserRegister(\r\n        uint256 id,\r\n        string name,\r\n        string Password,\r\n        address AccountNo\r\n    );\r\n    \r\n    function _createUser(string memory _name,string memory _email,string memory _password,address _accountNo) internal{\r\n        require(!existUser[_accountNo] && !existEmail[_email]);\r\n        existUser[_accountNo] = true;\r\n        existEmail[_email] = true;\r\n        uint id = users.push(User(_name,_email, _password, _accountNo)) - 1;        \r\n    \r\n        emit UserRegister(id,_name,_password,_accountNo);\r\n    }\r\n\r\n    function registerUser(string memory _name,string memory _email,string memory _password) public {\r\n        address  _accountNo = msg.sender;\r\n        _createUser(_name,_email,_password,_accountNo);\r\n    }\r\n\r\n    function checkUser(string memory _email, string memory _password) public view returns(uint) {\r\n        for (uint i = 0; i < users.length; i++) {\r\n            if (uint(keccak256(abi.encodePacked(users[i].email))) == uint(keccak256(abi.encodePacked(_email)))) {\r\n                if (uint(keccak256(abi.encodePacked(users[i].password))) == uint(keccak256(abi.encodePacked(_password)))){\r\n                    return i;\r\n                }              \r\n            }    \r\n        }\r\n        return 123;\r\n    }\r\n\r\n} ",
  "sourcePath": "E:\\FYP\\Userloginsignup\\testing\\src\\contracts\\UserContract.sol",
  "compiler": {
    "name": "solc",
    "version": "0.5.16+commit.9c3226ce.Emscripten.clang"
  },
  "schemaVersion": "3.4.4",
  "updatedAt": "2022-02-20T12:18:39.337Z",
  "networkType": "ethereum",
  "devdoc": {
    "methods": {}
  },
  "userdoc": {
    "methods": {}
  }
}